:10077600031383160714871407158715071688139E
:100786000813881208128810081188118312071C92
:10079600CD2BEB2B871CD32BD02B28308800CA2BD4
:1007A600071DDC2BD62B871DD92BE82BA030880004
:1007B600CA2B871DDF2BE52B071EFA2BE22B943065
:1007C6008800CA2B071EE82BE22B84308800CA2B30
:1007D600871CEE2BF12B68308800CA2B071DEE2BE9
:1007E600F42B871DCA2BF72B071ECA2BFA2BF230C8
:0A07F6008800CA2B00308800CA2BCF
:02400E00B13FC0
:00000001FF
